CC19319858303CGPRO SAC                                20220912000000082000000269798.50A000000                                                                                                                                                             
DD1931985830300000002794842ALBANY DANIELA SALAZAR PEREZ            C06                           2022091520220915000000000302924000000000000000000000000A                 C060000000002794842                                                             
DD1931985830300000009861385ELIA JUANA OBREGON RODRIGUEZ            C21                           2022091520220915000000000296659000000000000000000000000A                 C210000000009861385                                                             
DD1931985830300000006728592GONZALO CARRANZA VALDIVIESO             C18                           2022092020220920000000000975138000000000000000000000000A                 C180000000006728592                                                             
DD1931985830300000042514768BERTHA LUISA  VALLEJOS  MENDOZA         C06                           2022092320220923000000000285957000000000000000000000000A                 C060000000042514768                                                             
DD1931985830300000025331478CESAR DENNIS MONTOYA  JIBAJA            C04                           2022092520220925000000001235833000000000000000000000000A                 C040000000025331478                                                             
DD1931985830300000009048469DAMIAN MARTIN VALLE  ROJAS              C04                           2022092520220925000000000200000000000000000000000000000A                 C040000000009048469                                                             
DD1931985830300000073379339DANIELA MARCELA CÁMAC CALDERÓN          C04                           2022092520220925000000000381000000000000000000000000000A                 C040000000073379339                                                             
DD1931985830300000021873506JAIME ORLANDO SANCHEZ QUISPE            C04                           2022092520220925000000000269661000000000000000000000000A                 C040000000021873506                                                             
DD1931985830300000043375961LUIS MIGUEL GALLO VILLAR                CI7                           2022092520220925000000000500000000000000000000000000000A                 CI70000000043375961                                                             
DD1931985830300000009346720MARIO EDILBERTO ROCA ROJAS              C05                           2022092520220925000000000984583000000000000000000000000A                 C050000000009346720                                                             
DD1931985830300000029251147MOISES ERNESTO ROSAS FEBRES             C02                           2022092520220925000000000245000000000000000000000000000A                 C020000000029251147                                                             
DD1931985830300000010471358JUAN MANUEL TINEO MEZA                  C17                           2022092620220926000000000195500000000000000000000000000A                 C170000000010471358                                                             
DD1931985830300000022099858HECTOR HERNAN CANALES LANCHO            C07                           2022092820220928000000000338889000000000000000000000000A                 C070000000022099858                                                             
DD1931985830300000045558502AARON FERNANDO BELTRAN PERONA           C22                           2022093020220930000000000194500000000000000000000000000A                 C220000000045558502                                                             
DD1931985830300000009165986ALEJANDRO GUILLERMO GUANILO  MOYA       C03                           2022093020220930000000000353602000000000000000000000000A                 C030000000009165986                                                             
DD1931985830300000044956311ALEXANDRA ZUMAETA REGUERA               C13                           2022093020220930000000000227588000000000000000000000000A                 C130000000044956311                                                             
DD1931985830300000041038913ALLISON ALEJANDRA CONDOR CORDOVA        C03                           2022093020220930000000000150000000000000000000000000000A                 C030000000041038913                                                             
DD1931985830300000009705308BRITT FIONA ZEVALLOS TRUJILLO           C06                           2022093020220930000000000180000000000000000000000000000A                 C060000000009705308                                                             
DD1931985830300000040640640CARLOS ENRIQUE GRANDA GUTIERREZ         C21                           2022093020220930000000000190400000000000000000000000000A                 C210000000040640640                                                             
DD1931985830300000007734336CARLOS ROBERTO REVES GIHA               C18                           2022093020220930000000000221945000000000000000000000000A                 C180000000007734336                                                             
DD1931985830300000008271209CARLOS SANTOS RODRIGUEZ SANCHEZ         C15                           2022093020220930000000000841972000000000000000000000000A                 C150000000008271209                                                             
DD1931985830300000040470001DAVID FELIPE SIFUENTES MANRIQUE         CI9                           2022093020220930000000000200000000000000000000000000000A                 CI90000000040470001                                                             
DD1931985830300000025709047DORIS EMILIA CASTRO PALOMINO            C10                           2022093020220930000000000309200000000000000000000000000A                 C100000000025709047                                                             
DD1931985830300000010648870EDGARD EDUARDO RAMIREZ GOMERO           C25                           2022093020220930000000000217299000000000000000000000000A                 C250000000010648870                                                             
DD1931985830300000025522247EDITH ESTHER SIANCAS CASTILLO           C17                           2022093020220930000000000300000000000000000000000000000A                 C170000000025522247                                                             
DD1931985830300000010234735EDITH GRACIELA VILLALOBOS CORAL         C27                           2022093020220930000000000160674000000000000000000000000A                 C270000000010234735                                                             
DD1931985830300000070472618EINSTER KLEIN RODRIGUEZ FALCON          C26                           2022093020220930000000000444800000000000000000000000000A                 C260000000070472618                                                             
DD1931985830300000029608091ERICK JAVIER LINARES SALINAS            C26                           2022093020220930000000000573250000000000000000000000000A                 C260000000029608091                                                             
DD1931985830300000040411232ESTELA RICSE CHAUPIS                    C16                           2022093020220930000000000168200000000000000000000000000A                 C160000000040411232                                                             
DD1931985830300000070427905FELIX KENNETH DE LA CRUZ SAAVEDRA       C08                           2022093020220930000000000065000000000000000000000000000A                 C080000000070427905                                                             
DD1931985830300000008880161GERARDO CESAR VIDAL DEL AGUILA          C26                           2022093020220930000000000198195000000000000000000000000A                 C260000000008880161                                                             
DD1931985830300000040402002GLORIA ISABEL RODRIGUEZ RAMIREZ         C06                           2022093020220930000000000641972000000000000000000000000A                 C060000000040402002                                                             
DD1931985830300000006631274GRACIELA PATRICIA CARO RÍOS             C08                           2022093020220930000000000200000000000000000000000000000A                 C080000000006631274                                                             
DD1931985830300000007683927JEAN PAUL ESCATE LAZO                   C18                           2022093020220930000000000190400000000000000000000000000A                 C180000000007683927                                                             
DD1931985830300000045095552JORGE ABRAHAM HUARCAYA LEON             C17                           2022093020220930000000000318459000000000000000000000000A                 C170000000045095552                                                             
DD1931985830300000008274626JOSE ENRIQUE PEÑA GONZALES              C21                           2022093020220930000000000204700000000000000000000000000A                 C210000000008274626                                                             
DD1931985830300000010712060JUAN ENRIQUE MUNAYLLA MENDIETA          C13                           2022093020220930000000000233744000000000000000000000000A                 C130000000010712060                                                             
DD1931985830300000010310213JUAN RICARDO ROJAS SUAREZ               C23                           2022093020220930000000000103865000000000000000000000000A                 C230000000010310213                                                             
DD1931985830300000046739553JULIA MILAGROS  CAYETANO  AMAYA         C07                           2022093020220930000000002800000000000000000000000000000A                 C070000000046739553                                                             
DD1931985830300000041130635KAREM LIZBETH ARANA GIRAL               C09                           2022093020220930000000000100000000000000000000000000000A                 C090000000041130635                                                             
DD1931985830300000006785585KARINA CASTAÑEDA CHECA                  C11                           2022093020220930000000000175000000000000000000000000000A                 C110000000006785585                                                             
DD1931985830300000009841803LAURA ROSA CONDOR RAMOS                 C05                           2022093020220930000000000097180000000000000000000000000A                 C050000000009841803                                                             
DD1931985830300000009915579LENNY MARITZA MERINO JIMENEZ            C22                           2022093020220930000000000310667000000000000000000000000A                 C220000000009915579                                                             
DD1931985830300000025829232LIDA PETRONILA TELLO SOTELO             C19                           2022093020220930000000000203293000000000000000000000000A                 C190000000025829232                                                             
DD1931985830300000017808919LILIAN ROSSANA GUEVARA VARGAS           C05                           2022093020220930000000000300000000000000000000000000000A                 C050000000017808919                                                             
DD1931985830300000040248900LUCIANA YAÑEZ SALGADO                   C19                           2022093020220930000000000223538000000000000000000000000A                 C190000000040248900                                                             
DD1931985830300000008246739LUIS JUVENAL SOLIS ESQUIVEL             C21                           2022093020220930000000000119499000000000000000000000000A                 C210000000008246739                                                             
DD1931985830300000040643235LUIS MANUEL CHAVEZ CABELLO              C11                           2022093020220930000000000107337000000000000000000000000A                 C110000000040643235                                                             
DD1931985830300000008206792MANUEL ABELARDO MOISES PIÑEIRO COSSIO   C07                           2022093020220930000000000214100000000000000000000000000A                 C070000000008206792                                                             
DD1931985830300000009534874MANUELA ROXANNA ALCEDO CHAVEZ           C12                           2022093020220930000000001027390000000000000000000000000A                 C120000000009534874                                                             
DD1931985830300000008421901MARCOS GUILLERMO GARCIA INJOQUE         C10                           2022093020220930000000000200000000000000000000000000000A                 C100000000008421901                                                             
DD1931985830300000042794506MARIA DE LOS ANGELES MENA SANCHEZ       C08                           2022093020220930000000000180000000000000000000000000000A                 C080000000042794506                                                             
DD1931985830300000026600037MARIA MABEL ARRIBASPLATA ODIAGA DE UGALDC18                           2022093020220930000000000306193000000000000000000000000A                 C180000000026600037                                                             
DD1931985830300000006785539MARIA TERESA CHU YEP                    C20                           2022093020220930000000000138543000000000000000000000000A                 C200000000006785539                                                             
DD1931985830300000003736053MARIO RODRIGO TELLEZ CALCANEO           C17                           2022093020220930000000000198259000000000000000000000000A                 C170000000003736053                                                             
DD1931985830300000009862326MARLUZ VERIOSKA SUMARRIVA MEDINA        C04                           2022093020220930000000000383028000000000000000000000000A                 C040000000009862326                                                             
DD1931985830300000043112455MARTIN ALEJANDRO CHALEN CHANG           C22                           2022093020220930000000000284100000000000000000000000000A                 C220000000043112455                                                             
DD1931985830300000010303502MAURICIO  FERNANDEZ MALDONADO           C06                           2022093020220930000000000250601000000000000000000000000A                 C060000000010303502                                                             
DD1931985830300000043607193MEYLING ARACELLI CABANILLAS LAMEDA      C31                           2022093020220930000000000232567000000000000000000000000A                 C310000000043607193                                                             
DD1931985830300000040389568NILTON CESAR ERNAU VENEGAS              C18                           2022093020220930000000000219901000000000000000000000000A                 C180000000040389568                                                             
DD1931985830300000040113326OMAR SANTOS CALDERON ROMAN              C06                           2022093020220930000000000180000000000000000000000000000A                 C060000000040113326                                                             
DD1931985830300000007536350OSCAR EDWIN PAREDES ARGALUZA            C18                           2022093020220930000000000208000000000000000000000000000A                 C180000000007536350                                                             
DD1931985830300000042346300PAMELA CHRISTIE AVALOS FARFAN           C19                           2022093020220930000000000173146000000000000000000000000A                 C190000000042346300                                                             
DD1931985830300000007587841PEDRO EDINSON DÍAZ SÁNCHEZ              C21                           2022093020220930000000000120000000000000000000000000000A                 C210000000007587841                                                             
DD1931985830300000009885009PERCY FERNANDO TOLEDO ARBAIZA           C26                           2022093020220930000000000181935000000000000000000000000A                 C260000000009885009                                                             
DD1931985830300000010176003PERCY RIGOBERTO RIOS MURILLO            C18                           2022093020220930000000000356900000000000000000000000000A                 C180000000010176003                                                             
DD1931985830300000041734165PIERRE VIDALON ALVARADO                 C22                           2022093020220930000000000202568000000000000000000000000A                 C220000000041734165                                                             
DD1931985830300000042051612RANJU ANDERSON MEJIA DIESTRA            C21                           2022093020220930000000000190400000000000000000000000000A                 C210000000042051612                                                             
DD1931985830300000042813856RICARDO ARMANDO OROZCO MEDINA           C16                           2022093020220930000000000532788000000000000000000000000A                 C160000000042813856                                                             
DD1931985830300000002839941ROCIO CRUZ CASANOVA                     C11                           2022093020220930000000000894166000000000000000000000000A                 C110000000002839941                                                             
DD1931985830300000028283370ROMMY GIOVANNA JARA CASTRO              C08                           2022093020220930000000000123666000000000000000000000000A                 C080000000028283370                                                             
DD1931985830300000040526457RONALD GUILLERMO ARCE VEGA              C05                           2022093020220930000000000200000000000000000000000000000A                 C050000000040526457                                                             
DD1931985830300000029569123RUTH NANCY TELLO CONTRERAS              C12                           2022093020220930000000000126988000000000000000000000000A                 C120000000029569123                                                             
DD1931985830300000040757074SILVANA ELIZABETH GOMEZ PAREDES         C05                           2022093020220930000000000555555000000000000000000000000A                 C050000000040757074                                                             
DD1931985830300000041032058TAMMY ELIZABETH SHIMABUKU KANEKU        C08                           2022093020220930000000000345428000000000000000000000000A                 C080000000041032058                                                             
DD1931985830300000041104456VICTOR RUBEN MARQUEZ SARMIENTO          C18                           2022093020220930000000000273498000000000000000000000000A                 C180000000041104456                                                             
DD1931985830300000040256989VIVIANA  GUZMAN GARCIA  GARDELLA        C18                           2022093020220930000000000146460000000000000000000000000A                 C180000000040256989                                                             
DD1931985830300000021465926VLADIMIR HUGO AURIS MORA                C23                           2022093020220930000000000298500000000000000000000000000A                 C230000000021465926                                                             
DD1931985830300000025464165WILLIAM RIOS ROSALES                    C19                           2022093020220930000000000190400000000000000000000000000A                 C190000000025464165                                                             
DD1931985830300000040457410YAKELINE MIRELLA GOICOCHEA AQUINO       C06                           2022093020220930000000000025000000000000000000000000000A                 C060000000040457410                                                             
DD1931985830300000010342105YEREMI CHRISTIAN HURTADO TRUJILLO       C09                           2022093020220930000000000302347000000000000000000000000A                 C090000000010342105                                                             
DD1931985830300000040305083YULI LOPEZ VILCA                        C08                           2022093020220930000000000180000000000000000000000000000A                 C080000000040305083                                                             